:100000000C9462000C948A000C948A000C948A0070
:100010000C948A000C948A000C948A000C948A0038
:100020000C948A000C948A000C948A000C9474013D
:100030000C948A000C948A000C948A000C948A0018
:100040000C9461030C948A000C948A000C948A002E
:100050000C948A000C948A000C948A000C948A00F8
:100060000C948A000C948A0000000009000302002E
:10007000000405080000000000000000000000016E
:10008000020408102040800102040810200102042C
:100090000810204080400404040404040404020204
:1000A000020202020303030303030202030000002F
:1000B00000250028002B0000000000240027002A53
:1000C00000006C0111241FBECFEFD8E0DEBFCDBF12
:1000D00011E0A0E0B1E0E6E6FBE002C005900D9281
:1000E000A431B107D9F721E0A4E1B1E001C01D922C
:1000F000AB34B207E1F710E0C2E6D0E004C02197CC
:10010000FE010E949C05C136D107C9F70E94240553
:100110000C94B1050C94000069E070E089E191E075
:100120000E94C9026AE070E086E191E00E94C90283
:1001300064EB70E089E191E00E9406036AE570E0FB
:1001400086E191E00E94060364EC79E080E090E0B3
:100150000C94D003EF92FF920F931F93CF93DF93F2
:10016000809114010E9431048C01809104010E944D
:100170003104EC01809102010E9431047C018091E4
:1001800000010E943104A8014C0F5D1F57FF02C0FF
:100190004F5F5F4F559547959701280F391F37FFE0
:1001A00002C02F5F3F4F359527950E0D1F1D17FF7E
:1001B00002C00F5F1F4F15950795C80FD91FD7FDB8
:1001C0002196D595C7957801EC1AFD0ACA01821BC4
:1001D000930B865A9F4F853B910578F180910A01D8
:1001E00090910B01241735078CF4019690930B0125
:1001F00080930A01209108013091090128173907DD
:10020000A4F430930B0120930A010FC04217530747
:1002100064F4019790930B0180930A0120910601E9
:10022000309107018217930764F360910A0170917E
:100230000B0186E191E00E9406038AE5E80EF11CBD
:1002400085EBE816F10498F1C017D107ACF4809162
:100250001001909111010197909311018093100169
:1002600020910C0130910D0182179307C4F4309353
:1002700011012093100113C00C171D0724F5809164
:10028000100190911101019690931101809310013A
:1002900020910E0130910F012817390744F3609126
:1002A00010017091110189E191E00E9406036AE05A
:1002B00070E080E090E0DF91CF911F910F91FF906F
:1002C000EF900C94D003CD2B51F368E873E180E0FC
:1002D00090E00E94D003E3CF89E191E00E942F02D9
:1002E00086E191E00C942F021F920F920FB60F92AD
:1002F00011242F933F934F935F936F937F938F932B
:100300009F93AF93BF93EF93FF9380911D0187FF5E
:1003100027C0109285001092840080911D018F5F8C
:1003200080931D0180911D01082E000C990B2091D6
:100330001C012817190629F024F080911D018C302A
:10034000DCF18091840090918500049680349C4972
:1003500008F47BC08091840090918500049677C05A
:1003600080911D01082E000C990B20911C0128176B
:10037000190699F294F2E0911D018E2FEE0F990B60
:10038000FC01EE0FFF1FE80FF91FE25EFE4F8081B8
:1003900086FFC3CFE0911D018E2FEE0F990BFC015C
:1003A000EE0FFF1FE80FF91FE25EFE4F808160E055
:1003B0008F730E94B404B1CF2091840030918500E6
:1003C000E0911D018E2FEE0F990BFC01EE0FFF1F28
:1003D000E80FF91FE25EFE4F81819281820F931F29
:1003E0009093890080938800E0911D018E2FEE0F7D
:1003F000990BFC01EE0FFF1FE80FF91FE25EFE4FA5
:10040000808186FF11C0E0911D018E2FEE0F990BA8
:10041000FC01EE0FFF1FE80FF91FE25EFE4F808127
:1004200061E08F730E94B404FF91EF91BF91AF918F
:100430009F918F917F916F915F914F913F912F91FC
:100440000F900FBE0F901F90189580E49CE9909339
:100450008900809388008FEF80931D01E5CFFC0118
:1004600090911C019C3098F481E0890F80931C01CD
:100470009083892F90E0FC01EE0FFF1FE80FF91F1A
:10048000E25EFE4F88EB9BE09283818308958FEFBD
:1004900080830895DF92EF92FF920F931F93CF9383
:1004A000DF93EC01D62E7A01890188818C3008F027
:1004B00067C061E08D2D0E9478048881282F30E08C
:1004C000F901EE0FFF1FE20FF31FE25EFE4F9D2DBD
:1004D0009F736081607C692B608320E232E02E197B
:1004E0003F0937FF02C02D5F3F4F35952795359562
:1004F0002795298320E639E0201B310B37FF02C006
:100500002D5F3F4F35952795359527952A832CE00C
:10051000622F0E944405829FB001112430E020E048
:10052000AB01420F531FFA01EE0FFF1FE40FF51F3F
:10053000E25EFE4F908196FD16C02F5F3F4F2C303C
:10054000310571F781110FC01092800082E0809315
:1005500081001092850010928400B19A80916F0002
:10056000826080936F00E8818E2F90E0FC01EE0F97
:10057000FF1FE80FF91FE25EFE4F808180648083D9
:100580008881DF91CF911F910F91FF90EF90DF90C5
:10059000089520E639E040E252E00C944A02DC0182
:1005A000EC91EC3090F511968C91119728E830E0A1
:1005B000281B310987FD3395220F331F220F331F6C
:1005C0006217730784F012968C9128E532E0281B9D
:1005D000310987FD3395220F331F220F331F621716
:1005E00073070CF49B0122503109220F331F4FB7C0
:1005F000F8948E2F90E0FC01EE0FFF1FE80FF91F1B
:10060000E25EFE4F328321834FBF0895AF92BF92C7
:10061000CF92DF92EF92FF920F931F93CF93DF93CE
:10062000EC01603282E078070CF03EC0653B71055A
:1006300014F064EB70E0898148E8A42EB12CA81A6C
:10064000B10887FDB394AA0CBB1CAA0CBB1C0B2CD5
:10065000000CCC08DD0877FF02C070E060E0072ED8
:10066000000C880B990B2A8108E512E0021B110986
:1006700027FD1395000F111F000F111F012E000CF5
:10068000220B330B3F932F931F930F9314EBE12E09
:10069000F12C00E010E020E030E0A9010E94E2042B
:1006A0000F900F900F900F90CE01DF91CF911F917F
:1006B0000F91FF90EF90DF90CF90BF90AF900C9490
:1006C000CF021F920F920FB60F9211242F933F93D8
:1006D0008F939F93AF93BF9380914701909148016F
:1006E000A0914901B0914A013091460123E0230FC6
:1006F0002D3768F126E8230F0296A11DB11D209326
:1007000046018093470190934801A0934901B0931B
:100710004A018091420190914301A0914401B0911E
:1007200045010196A11DB11D8093420190934301A3
:10073000A0934401B0934501BF91AF919F918F91D8
:100740003F912F910F900FBE0F901F90189501961B
:10075000A11DB11DD4CF3FB7F89480914201909173
:100760004301A0914401B091450126B5A89B05C065
:100770002F3F19F00196A11DB11D3FBFBA2FA92F20
:10078000982F8827BC01CD01620F711D811D911D1D
:1007900042E0660F771F881F991F4A95D1F7089589
:1007A0008F929F92AF92BF92CF92DF92EF92FF9281
:1007B0006B017C010E94AB034B015C01C114D104AD
:1007C000E104F104E9F00E9433050E94AB036819CB
:1007D00079098A099B09683E73408105910570F388
:1007E00021E0C21AD108E108F10888EE880E83E002
:1007F000981EA11CB11CC114D104E104F10429F715
:10080000FF90EF90DF90CF90BF90AF909F908F9030
:100810000895789484B5836084BD85B5836085BD73
:10082000EEE6F0E0808181608083E1E8F0E082E044
:100830008083808181608083E0E8F0E08081816056
:100840008083E1EBF0E0808184608083E0EBF0E086
:1008500080818160808387E880937A001092C10054
:100860000895883020F08D3008F48DE08E5020916E
:10087000120190E4299F900111248770822B8093AC
:100880007C0080917A00806480937A0080917A0065
:1008900086FDFCCF80917800909179000895843096
:1008A00081F028F48230E9F08330F9F0089588303F
:1008B00071F0893091F08530B9F4809180008F7D9E
:1008C00003C0809180008F7780938000089580918D
:1008D000B0008F778093B00008958091B0008F7D35
:1008E000F9CF84B58F7784BD089584B58F7DFBCF14
:1008F000CF93DF9390E0FC01E158FF4F24918A569B
:100900009F4FFC0184918823C9F090E0880F991FC4
:10091000FC01E954FF4FA591B491FC01E355FF4F51
:10092000C591D49161110DC09FB7F8948C91209519
:1009300082238C938881282328839FBFDF91CF91C6
:100940000895623051F49FB7F8943C91822F8095BE
:1009500083238C93E8812E2BEFCF8FB7F894EC9103
:100960002E2B2C938FBFEACF1F93CF93DF93282F8B
:1009700030E0F901E859FF4F8491F901E158FF4F48
:10098000D491F901EA56FF4FC491CC23A9F0162F58
:1009900081110E944F04EC2FF0E0EE0FFF1FE35592
:1009A000FF4FA591B4918FB7F894EC91111108C045
:1009B000D095DE23DC938FBFDF91CF911F910895F7
:1009C000DE2BF8CF4F925F926F927F92AF92BF92E1
:1009D000CF92DF92EF92FF920F931F93CF93DF930B
:1009E000CDB7DEB729013A019B01AC0124193509C5
:1009F0004609570989899A89AB89BC89BC01CD010F
:100A00006A197B098C099D090E943405A801970188
:100A100024193509460957090E945005CA01B90130
:100A20006A0D7B1D8C1D9D1DDF91CF911F910F9134
:100A3000FF90EF90DF90CF90BF90AF907F906F903E
:100A40005F904F90089508950E9409040E94230525
:100A50000E948C00C0E0D0E00E94AA002097E1F341
:100A60000E940000F9CF0895DB018F939F930E94AD
:100A70006F05BF91AF91A29F800D911DA39F900D17
:100A8000B29F900D11240895991B79E004C0991F1D
:100A9000961708F0961B881F7A95C9F780950895D8
:100AA000052E97FB1EF400940E94670557FD07D0A2
:100AB0000E947A0507FC03D04EF40C94670550950C
:100AC0004095309521953F4F4F4F5F4F089590953A
:100AD0008095709561957F4F8F4F9F4F08950E942D
:100AE000A205A59F900DB49F900DA49F800D911D10
:100AF00011240895A1E21A2EAA1BBB1BFD010DC0F3
:100B0000AA1FBB1FEE1FFF1FA217B307E407F507BD
:100B100020F0A21BB30BE40BF50B661F771F881F99
:100B2000991F1A9469F760957095809590959B012F
:100B3000AC01BD01CF010895EE0FFF1F0590F491A8
:100B4000E02D0994A29FB001B39FC001A39F700D37
:100B5000811D1124911DB29F700D811D1124911DC5
:060B60000895F894FFCF98
:100B66000300020001002D0087005A000500AF00B7
:040B7600B4000100C6
:107E000001C0B7C0112484B790E89093610010922C
:107E10006100882361F0982F9A70923041F081FFC1
:107E200002C097EF94BF282E80E0C6D0E9C085E05D
:107E30008093810082E08093C00088E18093C1003C
:107E400080E18093C40086E08093C2008EE0B4D0CD
:107E5000259A84E020E33CEF91E030938500209365
:107E6000840096BBB09BFECF1D9AA8954091C000A0
:107E700047FD02C0815089F793D0813479F490D0C6
:107E8000182FA0D0123811F480E004C088E0113817
:107E900009F083E07ED080E17CD0EECF823419F40B
:107EA00084E198D0F8CF853411F485E0FACF853598
:107EB00041F476D0C82F74D0D82FCC0FDD1F82D0DC
:107EC000EACF863519F484E085D0DECF843691F58B
:107ED00067D066D0F82E64D0D82E00E011E05801AB
:107EE0008FEFA81AB80A5CD0F80180838501FA10D8
:107EF000F6CF68D0F5E4DF1201C0FFCF50E040E0DC
:107F000063E0CE0136D08E01E0E0F1E06F0182E067
:107F1000C80ED11C4081518161E0C8012AD00E5F9A
:107F20001F4FF601FC10F2CF50E040E065E0CE01BB
:107F300020D0B1CF843771F433D032D0F82E30D086
:107F400041D08E01F80185918F0123D0FA94F11070
:107F5000F9CFA1CF853739F435D08EE11AD085E934
:107F600018D08FE097CF813509F0A9CF88E024D0D1
:107F7000A6CFFC010A0167BFE895112407B600FCF3
:107F8000FDCF667029F0452B19F481E187BFE89594
:107F900008959091C00095FFFCCF8093C60008958E
:107FA0008091C00087FFFCCF8091C00084FD01C09C
:107FB000A8958091C6000895E0E6F0E098E19083EE
:107FC00080830895EDDF803219F088E0F5DFFFCF80
:107FD00084E1DFCFCF93C82FE3DFC150E9F7CF9122
:027FE000F1CFDF
:027FFE00000879
:0400000300007E007B
:00000001FF
